:020000040200F8
:10000000FD6293820240FD12E39F02FE374100022F
:1000100013010100B7110002938181F1B7050002BD
:10002000938585733706000213060674B70600022F
:100030009386867339A083A2050023A056009105FC
:100040009106E3EAC5FEB70500029385850B3706E6
:10005000000213068615B70600029386860B39A0A8
:1000600083A2050023A0560091059106E3EAC5FE90
:10007000B70500029385057437060002130606745F
:1000800021A023A005009105E3EDC5FEB702000203
:100090009382020C73905230B7000002E780600B2D
:1000A000B7000002E780600BB7000002E780202362
:0800B00073005010F5BF8280BF
:1000B80000000000000000006F004000130141F83C
:1000C80006C00AC20EC412C616C81ACA1ECC22CE50
:1000D80026D02AD22ED432D636D83ADA3EDC42DEC0
:1000E800C6C0CAC2CEC4D2C6D6C8DACADECCE2CE30
:1000F800E6D0EAD2EED4F2D6F6D8FADAFEDC9700E9
:10010800000093800005829082401241A241324251
:10011800C2425243E243724482541255A2553256A7
:10012800C2565257E257725886481649A649364A67
:10013800C64A564BE64B764C865C165DA65D365E27
:10014800C65E565FE65F1301C1077300203001A049
:100158003D432A876373C3029377F700BDEFADE58C
:10016800937606FF3D8ABA960CC34CC30CC74CC79E
:100178004107E36BD7FE11E28280B306C3408A06CB
:100188009702000096966780A6002307B700A3068B
:10019800B7002306B700A305B7002305B700A304DB
:1001A800B7002304B700A303B7002303B700A302D3
:1001B800B7002302B700A301B7002301B700A300CB
:1001C800B7002300B700828093F5F50F939685005A
:1001D800D58D93960501D58D61B793962700970223
:1001E800000096968682E78086FA9680C1171D8F52
:1001F8003E96E374C3F8A5B75D7113068002814586
:10020800280886C6B137BD47230CF1008947230E5D
:10021800F1003ED2E177938707082C080A85231A54
:10022800F1020529B6406161828031714ED722DD25
:1002380006DF26DB4AD952D556D35AD1753F03A4D7
:10024800018205471C4093F7F707639EE70C614658
:1002580081452800F53DB7070700938707403EC250
:100268001C40014493D4870093F4F40393F70708E0
:100278009E0485CF61691309096A636C94006169FA
:1002880001441309096A130B0008634A9402814761
:1002980041A8931504014A87814613060002C181CB
:1002A8004800492813040408C9BF61671307076A8F
:1002B8008D461306000281454800AD28C9B703A63C
:1002C8004182131A0401135A0A01CA870147930687
:1002D80000022296D2854800F920130600088145BD
:1002E8000810BD354A87930600021010D2854800D1
:1002F800992283A741820147A2971410BA963386A0
:10030800E70083C6060003460600630FD60093572E
:100318007440A207E206D58F4207D98F93E72700DA
:1003280003A701821CC301A00507E31867FD130496
:100338000408A1BF1C418E0603A88700B3E6060186
:1003480093E6060894C7144999CA814663DDC60036
:10035800CCC323A007003A8515E10D458280CCC3A4
:10036800814663C9C600944793E6360094C70DE3F7
:100378000D451DA023A007008506E5B703A8C70003
:100388007D1513781800E31908FC850691057DBFD3
:10039800C8477D17058961FDB707000103A007005D
:1003A80003A047008280032805000E0783288800E1
:1003B80033671701136707082324E800184905C3A2
:1003C80001476353D702131527002322B80032953B
:1003D80008412320A8003E850DE90D45828023228F
:1003E800B8000147634BD7000327880013675700FD
:1003F8002324E8008DE70D4505A893152700B2953D
:100408008C4105072320B800F1BF8328C8007D155B
:1004180093F81800E39208FC050791055DB70325DA
:10042800C800FD17058979F5B707000103A0070083
:1004380003A0470082801C4989CF814763FFD7000A
:1004480003280500BA882322B800639708020D45DF
:10045800828008414CC163EAD700B707000103A0B6
:10046800070003A04700014582800C41139727002D
:1004780032970CC38507C5B70323C800FD1813734B
:100488001300E31403FC832808001398270032980C
:10049800232018018507910555B70547AA876305E5
:1004A800E50209476300E506054591EBB706060036
:1004B800DC4A7D771307F73FF98FDCCA0145828054
:1004C8007D1719EB0D4582809306004037A707007A
:1004D80013070712B7050500905D7D8E75D23706A4
:1004E80006005C4A7D771307F73FF98FD58F4111D6
:1004F8005CCA02C613073006B2476359F7000145C4
:1005080041018280856693860680C9B7B247850710
:100518003EC6DDB791476307F50263EAA700854742
:10052800630AF50489476309F50405458280A147F4
:10053800E31DF5FE0947094501A8FD1781EFC8D25B
:100548000D45828005470D45B7A707009387071219
:10055800B7060500905E798E6DD28A05C98D411166
:10056800CCD202C613073006B247635AF7000145DA
:10057800410182801147C9BF21470145F1B7B24700
:1005880085073EC6D5B70547AA876305E50209472B
:100598006304E506054591EBB70606009C4A7D779E
:1005A8001307F73FF98F9CCA014582807D1719EB25
:1005B8000D4582809306004037A7070013070712EE
:1005C800B7050500905D7D8E75D2370706001C4B78
:1005D8007D761306F63FF18FD58F1CCB232C0700B1
:1005E80085471CCF411102C613073006B24763592D
:1005F800F7000145410182808566938606806DBFBC
:10060800B24785073EC6DDB711C98547630DF502B8
:1006180005458280FD1791EB0D4582800946B7A7F5
:10062800070093870712B7060500985E718F7DD380
:100638004111C8D602C613073006B2476357F70000
:100648000145410182800546D9BFB24785073EC6AC
:10065800EDB7011126CAB7040600DC4806CE22CC45
:100668004AC84EC652C456C2F19BDCC89C482A8967
:10067800C845F19B9CC8D84883C7C5012E84137709
:1006880037C08A07D98FDCC883C7D50198489A072D
:100698001377F7C393F7073CD98F9CC8FD3B0C44ED
:1006A800AA8A03454400BD351848B70705002A8AB9
:1006B80098C358480850D8C3184C98C7E935AA8930
:1006C80048509937834704002A8793F6170089E62C
:1006D800D44893E62600D4C893F6270099E637064F
:1006E8000600544A93E6160054CA93F6470099E662
:1006F80037060600144A93E6260014CAA18B99E728
:10070800B70606009C4A93E717009CCAF240624469
:100718002320590123224901232439012326E900F2
:10072800D244B249224A924A4A85424905618280A6
:08073800003800020018000265
:0400000502000000F5
:00000001FF
