:020000040200F8
:10000000FD62938202400100FD12E39E02FE374131
:10001000000213010100B70100029381016AB705D4
:1000200000029385056A370600021306066AB706C2
:1000300000029386066A39A083A2050023A0560019
:1000400091059106E3EAC5FEB70500029385056AAE
:10005000370600021306066AB70600029386066A90
:1000600039A083A2050023A0560091059106E3EA7A
:10007000C5FEB70500029385056A37060002130620
:10008000066A21A023A005009105E3EDC5FEB70097
:100090000002E780C00AB7000002E780C00AB7008C
:1000A0000002E780E02273005010F5BF828000005C
:1000B0000000000000000000000000000000000040
:1000C0006F004000197106C20AC40EC612C816CAD3
:1000D0001ACC1ECE22D026D22AD42ED632D836DA48
:1000E0003ADC3EDEC2C0C6C2CAC4CEC6D2C8D6CA78
:1000F000DACCDECEE2D0E6D2EAD4EED6F2D8F6DA28
:10010000FADCFEDE970000009380E00482909240CB
:100110002241B2414242D2426243F24302549254DB
:100120002255B2554256D2566257F2570648964863
:100130002649B649464AD64A664BF64B065C965C5B
:10014000265DB65D465ED65E665FF65F096173004A
:10015000203001A03D432A876373C3029377F700E1
:10016000BDEFADE5937606FF3D8ABA960CC34CC34E
:100170000CC74CC74107E36BD7FE11E28280B30680
:10018000C3408A069702000096966780A600230760
:10019000B700A306B7002306B700A305B7002305E1
:1001A000B700A304B7002304B700A303B7002303D9
:1001B000B700A302B7002302B700A301B7002301D1
:1001C000B700A300B7002300B700828093F5F50FB6
:1001D00093968500D58D93960501D58D61B793963D
:1001E00027009702000096968682E78086FA96801E
:1001F000C1171D8F3E96E374C3F8A5B75D71130652
:1002000080028145280886C6B137BD47230CF1001E
:100210008947230EF1003ED2E177938707082C0827
:100220000A85231AF1026526B64061618280317128
:1002300006DF22DD26DB4AD952D54ED7C1376146CB
:1002400081452800013FB707070061679387074092
:100250001307076A8D4613060002814548003724BC
:10026000000261693EC2130404809D288144130981
:10027000096A130A000863E4F4018147A9A093996D
:10028000040193D90901CA87014793060002228617
:10029000CE8548007D2013060008814508105D3D8D
:1002A0004A87930600021010CE854800192A01479C
:1002B0001410B3078700BA9683C6060083C70700E9
:1002C0006388F6008947374700022320F78001A0A2
:1002D0000507E31F47FD938404081304040861BF66
:1002E0001C418E0603A88700B3E6060193E60608C4
:1002F00094C7144999CA814663DDC600CCC323A0C4
:1003000007003A850DE50D458280CCC3814663CC5C
:10031000C600944793E6360094C775D7C8477D1743
:10032000058965FD828023A007008506CDB703A857
:10033000C7007D1513781800E31608FC85069105A3
:1003400065BF032805000E0783288800336717015F
:10035000136707082324E800184905C301476353BE
:10036000D702131527002322B80032950841232015
:10037000A8003E850DED0D4582802322B80001477F
:10038000634FD70003278800136757002324E80032
:10039000FDD30325C800FD1705897DF982809315DB
:1003A0002700B2958C4105072320B800D1BF8328D0
:1003B000C8007D1593F81800E39E08FA050791051B
:1003C00079BF1C4989CF814763FFD7000328050007
:1003D000BA882322B800639108020D458280084143
:1003E0004CC163E4D700014582800C41139727007C
:1003F00032970CC38507F5B70323C800FD181373A4
:100400001300E31A03FC832808001398270032988E
:10041000232018018507910545BF0547AA87630575
:10042000E50209476300E506054591EBB7060600BE
:10043000DC4A7D771307F73FF98FDCCA01458280DC
:100440007D1719EB0D4582809306004037A7070002
:1004500013070712B7050500905D7D8E75D237062C
:1004600006005C4A7D771307F73FF98FD58F41115E
:100470005CCA02C613073006B2476359F70001454C
:1004800041018280856693860680C9B7B247850799
:100490003EC6DDB791476307F50263EAA7008547CB
:1004A000630AF50489476309F50405458280A1477D
:1004B000E31DF5FE0947094501A8FD1781EFC8D2E4
:1004C0000D45828005470D45B7A7070093870712A2
:1004D000B7060500905E798E6DD28A05C98D4111EF
:1004E000CCD202C613073006B247635AF700014563
:1004F000410182801147C9BF21470145F1B7B24789
:1005000085073EC6D5B70547AA876305E5020947B3
:100510006302E506054591EBB70606009C4A7D7728
:100520001307F73FF98F9CCA014582807D1719EBAD
:100530000D4582809306004037A707001307071276
:10054000B7050500905D7D8E75D2370706001C4B00
:100550007D761306F63FF18FD58F1CCB85471CCFD8
:10056000411102C613073006B2476359F70001452F
:10057000410182808566938606807DBFB2478507EC
:100580003EC6DDB711C98547630DF502054582807A
:10059000FD1791EB0D4582800946B7A707009387A9
:1005A0000712B7060500985E718F7DD34111C8D63A
:1005B00002C613073006B2476357F70001454101F1
:1005C00082800546D9BFB24785073EC6EDB7011107
:1005D00026CAB7040600DC4806CE22CC4AC84EC65E
:1005E00052C456C2F19BDCC89C482A89C845F19B7D
:1005F0009CC883C7C5012E848A07DCC883C7D50180
:100600008A079CC8193D0C44AA8A03454400593501
:100610001848B70705002A8A98C358480850D8C315
:10062000184C98C7CD35AA894850A93F8347040084
:100630002A8793F6170089E6D44893E62600D4C8A3
:1006400093F6270099E637060600544A93E616000B
:1006500054CA93F6470099E637060600144A93E613
:10066000260014CAA18B99E7B70606009C4A93E7B7
:1006700017009CCAF24062442320590123224901F9
:10068000232439012326E900D244B249224A924A5E
:100690004A85424905618280000000000000000098
:0400000502000000F5
:00000001FF
